:100000000C942A000C9434000C9434000C943400AA
:100010000C9434000C9434000C9434000C94340090
:100020000C9434000C9434000C9434000C94340080
:100030000C9434000C9434000C9434000C94340070
:100040000C9434000C9434000C9434000C94340060
:100050000C94340011241FBECFE5D4E0DEBFCDBF29
:100060000E9436000C9464000C940000DF93CF9340
:100070000F92CDB7DEB787E390E02FEFFC0120832E
:100080008AE390E02AE330E0F90120812E7FFC0131
:100090002083198201C0000089818F5F898388E3F2
:1000A00090E02981FC01208389E390E0FC018081BC
:1000B000882F90E081709070882369F3198288E31B
:0C00C00090E0FC011082E8CFF894FFCF24
:00000001FF
