:100000000C942A000C943C000C943C000C943C0092
:100010000C943C000C943C000C943C000C943C0070
:100020000C943C000C943C000C943C000C943C0060
:100030000C943C000C943C000C943C000C943C0050
:100040000C943C000C943C000C943E000C943C003E
:100050000C943C0011241FBECFE5D4E0DEBFCDBF21
:1000600010E0A0E6B0E001C01D92A136B107E1F7B3
:100070000E94F8000C941A010C9400001F920F9239
:100080000FB60F9211242F938F939F93AF93BF932B
:10009000EF93FF93DF93CF93CDB7DEB780916000EE
:1000A0008930B1F510926000A5E3B0E0E5E3F0E03F
:1000B0008081982F907F809160008F70892B8C9326
:1000C000A8E3B0E0E8E3F0E08081982F9C7FE5E3CF
:1000D000F0E080818370892B8C93A8E3B0E0E8E3A3
:1000E000F0E08081282F2F73E5E3F0E08081882FF6
:1000F00090E082959295907F9827807F9827982FFF
:10010000E5E3F0E08081807C892B822B8C9338C0E2
:10011000809160008F5F80936000A5E3B0E0E5E32D
:10012000F0E08081982F907F809160008F70892B04
:100130008C93A8E3B0E0E8E3F0E08081982F9C7F07
:10014000E5E3F0E080818370892B8C93A8E3B0E035
:10015000E8E3F0E08081282F2F73E5E3F0E0808171
:10016000882F90E082959295907F9827807F98279E
:10017000982FE5E3F0E08081807C892B822B8C93A3
:10018000CF91DF91FF91EF91BF91AF919F918F91AF
:100190002F910F900FBE0F901F901895DF93CF9364
:1001A000CDB7DEB7AFE5B0E0EFE5F0E080818F7767
:1001B0008C93A1E3B0E0E1E3F0E080818B7F8C934E
:1001C000ABE5B0E0EBE5F0E0808180628C93A4E5E4
:1001D000B0E0E4E5F0E0808180648C93AFE5B0E0CE
:1001E000EFE5F0E0808180688C93CF91DF910895F6
:1001F000DF93CF93CDB7DEB7A4E3B0E0E4E3F0E064
:1002000080818F608C93A5E3B0E0E5E3F0E080812E
:10021000807F8C93A7E3B0E0E7E3F0E08081836C1C
:100220008C93A8E3B0E0E8E3F0E080818C930E9437
:08023000CE00FFCFF894FFCFD0
:00000001FF
